:100000000C942A000C9434000C9434000C943400AA
:100010000C9434000C9434000C9434000C94340090
:100020000C9434000C9434000C9434000C94340080
:100030000C9434000C9434000C9434000C94340070
:100040000C9434000C9434000C9434000C94340060
:100050000C94340011241FBECFE5D8E0DEBFCDBF25
:100060000E944B000C947E000C940000D09A889A59
:100070000895813029F0823009F00895D8980895C4
:10008000909A0895813029F0823009F00895D89A25
:100090000895909808950E94360081E00E943900EA
:1000A0002FEF89E698E1215080409040E1F700C0B1
:1000B000000081E00E9442002FEF89E698E1215084
:1000C00080409040E1F700C0000082E00E943900CB
:1000D0002FEF89E698E1215080409040E1F700C081
:1000E000000082E00E9442002FEF89E698E1215053
:1000F00080409040E1F700C00000CFCFF894FFCFE0
:00000001FF
